:1014A40057656C636F6D6520746F207573652100DB
:1014B4004552524F522000206700454E5445522059
:0D14C4005448452050524943450020240063
:1014D100043B00000000043000000000043700005D
:1014E10000000234000004253F2147AE0223000121
:0914F100022A0000012900C100DB
:100CE2007590F01215617F801215797BFF7A147965
:100CF200A41214FB7FE87E031215211215A3C2AFC2
:100D0200121384D2AF3000137FC01215797BFF7AA1
:100D12001479B41214FBC297020FB5D2977FC01296
:100D22001579E47F14FEFDFCAB3AAA39A938A8373D
:100D3200C3120BEB500C75287D75273F75265502A3
:100D42000E9AE47F14FEFDFCAB3AAA39A938A83703
:100D5200D3120BEB4019E47F25FEFDFCA837120BE2
:100D6200EB500C7528A0752789752630020E9AE47F
:100D72007F25FEFDFCAB3AAA39A938A837D3120B5E
:100D8200EB4019E47F35FEFDFCA837120BEB500C4B
:100D92007528DA7527AC75262A020E9AE47F35FE8D
:100DA200FDFCAB3AAA39A938A837D3120BEB40198C
:100DB200E47F64FEFDFCA837120BEB500C7528B8DB
:100DC20075271E752625020E9AE47F64FEFDFCAB94
:100DD2003AAA39A938A837D3120BEB4019E47F8617
:100DE200FEFDFCA837120BEB500C75287875279C7A
:100DF200752622020E9AE47F86FEFDFCAB3AAA39E2
:100E0200A938A837D3120BEB4018E47F96FEFDFCFD
:100E1200A837120BEB500B7528B8752740752622A0
:100E22008076E47F96FEFDFCAB3AAA39A938A83752
:100E3200D3120BEB4018E47FD7FEFDFCA837120B50
:100E4200EB500B752812752783752620804AE47FA4
:100E5200D7FEFDFCAB3AAA39A938A837D3120BEB5F
:100E62004018E47FB97E01FDFCA837120BEB500A53
:100E7200E4F528F527752620801EE47FB97E01FD62
:100E8200FCAB3AAA39A938A837D3120BEB400C7540
:100E9200282D75272175261F75253F12146AAF3A32
:100EA200AE39AD38AC37EC120A9EAB28AA27A92678
:100EB200A8251208F8C004C005C006C007AC34ADAE
:100EC20035EC120AA3A804A905AA06AB07D007D0DD
:100ED20006D005D004120803C004C005C006C0072E
:100EE200AC23AD24E4120AA3D003D002D001D00077
:100EF2001208F8C004C005C006C007AC2AAD2BE436
:100F0200120AA3D003D002D001D000120807120A9D
:100F1200DC8F2F8E2E8D2D8C2CEC335009E4F52F87
:100F2200F52EF52DF52CE47BE87A03F9F8AF2FAE18
:100F32002EAD2DAC2C1213E5EF2430FF12158EE4EA
:100F42007BE87A03F9F8AF2FAE2EAD2DAC2C12133D
:100F5200E5AC00AD01AE02AF03E47B64FAF9F8122E
:100F620013E5EF2430FF12158EE47B64FAF9F8AF33
:100F72002FAE2EAD2DAC2C1213E5AC00AD01AE029E
:100F8200AF03E47B0AFAF9F81213E5EF2430FF12FB
:100F9200158EE47B0AFAF9F8AF2FAE2EAD2DAC2CEC
:100FA2001213E5EB2430FF12158E7BFF7A1479BB06
:100FB2001214FB12116F8F36E536641060030211B2
:100FC2005A7F64FE1215211215617F801215797BFA
:100FD200FF7A1479BE1214FBE4F536F523F5247F6B
:100FE200C012157912116F8F36E536700302109810
:100FF200D3940A4003021098C3E5229404E5219495
:10100200005028AE23AF247C007D0A120B768E237B
:101012008F24E53675F00A84E5F02524F524E435BD
:1010220023F5230522E52270020521AE23AF247C9D
:10103200037DE8120B88EF2430FF12158EAE23AF2A
:10104200247C037DE8120B887E007F64CFCDCFCE57
:10105200CCCE120B88EF2430FF12158EAE23AF24B4
:101062007C007D64120B887E007F0ACFCDCFCECC70
:10107200CE120B88EF2430FF12158EAE23AF247CE4
:10108200007D0A120B88ED2430FF12158E7BFF7A49
:101092001479CE1214FBE536B40B26E4F523F524BD
:1010A200F521F5227F3012158E7F3012158E7F309A
:1010B20012158E7F3012158E7BFF7A1479CE1214A0
:1010C200FBE536B40C141215617F801215797BFF93
:1010D2007A1479A41214FB020D00E536640E600343
:1010E200020FE1AF3AAE39AD38AC37EC120A9EAB23
:1010F20028AA27A926A8251208F8C004C005C006F8
:10110200C007AC34AD35EC120AA3A804A905AA069F
:10111200AB07D007D006D005D004120803C004C024
:1011220005C006C007AC23AD24E4120AA3D003D045
:1011320002D001D0001208F8120ADC8E2A8F2BE4AA
:10114200F523F5241215617F801215797BFF7A143D
:1011520079BE1214FB020FE1E536640F6003020D43
:0D11620000F523752401F52AF52B020D0080
:10146A0020B2367F057E0012152120B22C7F327EF3
:10147A0000121521AF3AAE39AD38AC37EC120A9EDC
:10148A00AB28AA27A926A8251208F8120ADC8E3446
:0A149A008F357FF47E011215212228
:101384001214298F3A8E398D388C37C3E53A953348
:10139400F53AE5399532F539E5389531F538E537DB
:1013A4009530F537E4FFFEFDFCAB3AAA39A938A81D
:1013B40037D3120BEB4020AF3AAE39AD38AC37EC33
:1013C400120A9EE4FBFA79C87842120A01120ADC76
:1013D400E48F3A8E398005E4F53AF539F538F53776
:0113E40022E6
:0C15A3001214298F338E328D318C3022CF
:10152100E4FDFCC3ED9FEC9E5015E4FBFA0BBB0000
:0F153100010AEB647B4A70F50DBD00010C80E4EC
:011540002288
:0315AF0000002217
:10142900D2B11215AFC2B07F007E007D007C00D220
:10143900AF20B1FDC2AFE4FBD2B07801120C01C2FA
:10144900B030B10DEF2401FFE43EFEE43DFDE43C84
:10145900FC0BBB18E3D2B0ED6480FD1215AFC2B02E
:011469002260
:10154100E4FDFCC3ED9FEC9E5015E4FBFA0BBB00E0
:0F155100010AEB647B4A70F50DBD00010C80E4CC
:011560002268
:10157900A907C2A67F017E00121541D2A789801250
:051589001541C2A7227C
:10158E00A907D2A67F017E001215418980D2A7122B
:05159E001541C2A72267
:1014FB008B088A09890AAB08AA09A90A120B5DFF96
:10150B00D39400401012158E7401250AF50AE435A8
:06151B0009F50980E12240
:10156100C2A7C2A57F381215797F0C1215797F06A3
:081571001215797F01021579C2
:10116F00E4F5087590FFC2932097137F14FE1215B4
:10117F00213097FD7F147E001215217508012096EE
:10118F00147F147E001215213096FD7F147E0012FD
:10119F0015217508052095147F147E001215213036
:1011AF0095FD7F147E001215217508092094147F78
:1011BF00147E001215213094FD7F147E001215212C
:1011CF0075080D7590FFC2922097147F147E001240
:1011DF0015213097FD7F147E00121521750802200E
:1011EF0096147F147E001215213096FD7F147E0019
:1011FF001215217508062095147F147E00121521F3
:10120F003095FD7F147E0012152175080A20941465
:10121F007F147E001215213094FD7F147E0012156D
:10122F002175080E7590FFC2912097147F147E00D0
:10123F001215213097FD7F147E00121521750803BA
:10124F002096147F147E001215213096FD7F147E98
:10125F00001215217508072095147F147E001215B2
:10126F00213095FD7F147E0012152175080B2094F7
:10127F00147F147E001215213094FD7F147E00120E
:10128F00152175080F7590FFC2902097147F147E5B
:10129F00001215213097FD7F147E0012152175085D
:1012AF00042096147F147E001215213096FD7F14B2
:1012BF007E001215217508082095147F147E0012E8
:1012CF0015213095FD7F147E0012152175080C2015
:1012DF0094147F147E001215213094FD7F147E002C
:0812EF00121521750810AF086B
:0112F70022D4
:10080000020B48E86480F8E933E83360110460F0D3
:10081000ED33EC337009E8FCE9FDEAFEEBFF22045E
:1008200060DED3EB9FEA9EE99DE8C2E78CF0C2F759
:1008300095F0400CE8CCF8E9CDF9EACEFAEBCFFB25
:10084000120B1385D0F05804700320D5B3E8047060
:10085000075002B2D5020B5292D5EC0460F7E4CCFB
:10086000C0E0C398F8603B94186008400DD0E0FBEE
:10087000020B2AE4FBFAC9FC8028E830E406E4C94C
:10088000FBE4CAFCE830E305E4C9CACBFCE8540742
:100890006010F8C3E913F9EA13FAEB13FBEC13FC4D
:1008A000D8F130F52FC3E49CFCEF9BFFEE9AFEEDF0
:1008B00099FDD0E0FBEF4E4D4C701222DB03020B92
:1008C0004FEC2CFCEF33FFEE33FEED33FDED30E764
:1008D000EB020B2AEF2BFFEE3AFEED39FDD0E0FBE9
:1008E00050130BBB0003020B52ED13FDEE13FEEF92
:0808F00013FFEC13FC020B2ABC
:1008F800EC4D6011E8497017ED33EC3304600DE4FA
:10090800FCFFFEFD22E933E8330470F8020B4812BD
:100918000B1358046009E4CC2481500628500902BE
:100928000B52284003020B4FC0E0EB4A7044B980D9
:1009380006D0E0FB020B3EEF4E701CBD8008EBFFBB
:10094800EAFEE9FD80EBE98DF0A4FEE5F00209E19D
:10095800E9CDF9EAFEEBFFEF89F0A4FCE5F0CE89DA
:10096800F0A42EFFE435F0CD89F0A42DFEE435F097
:100978008067EF4E7005BD80D780C3EF8BF0A4ACC5
:10098800F0EE8BF0A42CFCE435F0F8EF8AF0A42C00
:10099800E5F038FCE433CB8DF0A42CFCE5F03BF813
:1009A800EE8AF0A42CFCE5F038F8E433CF89F0A403
:1009B8002CFCE5F038CF3400CE89F0A42FFFE5F009
:1009C8003EFEE433C98DF0A42EFEE5F039CD8AF061
:1009D800A42FFFE5F03EFEE43DFD33D0E0FB5007D9
:1009E8000BBB000F020B52EC2CFCEF33FFEE33FE77
:0609F800ED33FD020B2AA5
:1009FE00020B52EC5D046005E859047003020B48CB
:100A0E00120B13580460F6EC4860F2EC7004FDFE15
:100A1E00FF22C860DB2481C85009C39860025006CB
:100A2E00020B4F9850CAF582E9294B4A7005AB82EA
:100A3E00020B3E75F0007C1A7880C3EF9BEE9AEDA8
:100A4E0099400DC3EF9BFFEE9AFEED99FDE842F043
:100A5E00DC23ACF0D0E0FFD0E0FED0E0FDAB822096
:100A6E00E7101BEB60BAEC2CFCEF33FFEE33FEED20
:100A7E0033FD020B2AE803F830E705C0F075F000ED
:100A8E00EF2FFFEE33FEED33FD40B830E7C280AA04
:100A9E0075F020800E75F010800575F0087D007ED3
:100AAE00007F003392D530D503120BDDEC334010AE
:100ABE00EF33FFEE33FEED33FDEC33FCD5F0ED22DC
:0E0ACE00E5F0247EA2D513CC92E7CDCEFF2218
:100ADC00EDD2E7CD33EC3392D524814006E4FFFE12
:100AEC00FDFC22FCE4CFCECDCC24E0501174FF8071
:100AFC00EDC3CC13CCCD13CDCE13CECF13CF04700E
:070B0C00F030D5DE020BDD25
:100B1300E9D2E7C933E833F892D5EDD2E7CD33EC28
:070B230033FC5002B2D522A1
:100B2A00EC30E7100FBF000C0EBE00080DBD00042C
:100B3A000BEB6014A2D5EB13FCED92E7FD2274FFD8
:100B4A00FCFDFEFF22E480F8A2D574FF13FC7D8031
:030B5A00E480EF45
:030000000212F8F1
:0C12F800787FE4F6D8FD75813E02133FBC
:100B5D00BB010689828A83E0225002E722BBFE0296
:090B6D00E32289828A83E49322C9
:100B7600EF8DF0A4A8F0CF8CF0A428CE8DF0A42E93
:020B8600FE224D
:100B8800BC000BBE0029EF8DF084FFADF022E4CC51
:100B9800F875F008EF2FFFEE33FEEC33FCEE9DEC1A
:100BA800984005FCEE9DFE0FD5F0E9E4CEFD22ED60
:100BB800F8F5F0EE8420D21CFEADF075F008EF2FAA
:100BC800FFED33FD4007985006D5F0F222C398FD9B
:050BD8000FD5F0EA2238
:1013E500C2D5E830E70FB2D5E4C39BFBE49AFAE433
:1013F50099F9E498F8EC30E717B2D512141B120CE2
:1014050050E4C39BFBE49AFAE499F9E498F8800365
:10141500120C5030D50DE4C39FFFE49EFEE49DFD04
:04142500E49CFC2225
:0E0BDD00C3E49FFFE49EFEE49DFDE49CFC2229
:100BEB00EB9FF5F0EA9E42F0E99D42F0EC6480C881
:060BFB0064809845F02221
:100C0100E8600FEFC333FFEE33FEED33FDEC33FC51
:030C1100D8F122F5
:10130400020CE2E493A3F8E493A34003F68001F211
:1013140008DFF48029E493A3F85407240CC8C333EA
:10132400C4540F4420C8834004F456800146F6DFB9
:10133400E4800B01020408102040809014D1E47E64
:10134400019360BCA3FF543F30E509541FFEE493AE
:10135400A360010ECF54C025E060A840B8E493A375
:10136400FAE493A3F8E493A3C8C582C8CAC583CAA0
:10137400F0A3C8C582C8CAC583CADFE9DEE780BE58
:0114FA0000F1
:100C140075F008758200EF2FFFEE33FECD33CDCC97
:100C240033CCC58233C5829BED9AEC99E58298401A
:100C34000CF582EE9BFEED9AFDEC99FC0FD5F0D6F7
:100C4400E4CEFBE4CDFAE4CCF9A88222B800C1B921
:100C54000059BA002DEC8BF084CFCECDFCE5F0CB5F
:100C6400F97818EF2FFFEE33FEED33FDEC33FCEB98
:100C740033FB10D703994004EB99FB0FD8E5E4F953
:100C8400FA227818EF2FFFEE33FEED33FDEC33FC40
:100C9400C933C910D7059BE99A4007EC9BFCE99A34
:100CA400F90FD8E0E4C9FAE4CCFB2275F010EF2F79
:100CB400FFEE33FEED33FDCC33CCC833C810D70779
:100CC4009BEC9AE899400AED9BFDEC9AFCE899F8B4
:0E0CD4000FD5F0DAE4CDFBE4CCFAE4C8F92247
:00000001FF
